:020000040800F2
:1000000000200020E10300082D0400082D04000852
:1000100000000000000000000000000000000000E0
:100020000000000000000000000000002D04000897
:1000300000000000000000002D0400085D02000820
:100040002D0400082D0400082D0400082D040008CC
:100050002D0400082D0400082D0400082D040008BC
:100060002D0400082D0400082D0400082D040008AC
:100070002D0400082D0400082D0400082D0400089C
:100080002D0400082D040008000000002D040008C5
:100090002D0400082D0400082D0400082D0400087C
:1000A0002D0400082D0400082D0400082D0400086C
:1000B0002D040008000000002D04000800000000CE
:1000C0005FF808F180B582B000AF78600A1CFB1CB5
:1000D0001A70FB1C1B78002B06D0084B074A51698D
:1000E0007A680A435A6106E0044B044A5269796807
:1000F000C9430A405A61BD4602B080BD00100240AB
:1001000080B582B000AF78600A1CFB1C1A70FB1C23
:100110001B78002B06D0084B074A91697A680A437E
:100120009A6106E0044B044A92697968C9430A401F
:100130009A61BD4602B080BD00100240B0B582B0E9
:1001400000AF021C3960FB1D1A70FB1D1B787F2B52
:100150002FD92D4CFB1D1B781A1C0F231340083B75
:100160009908294AFB1D1B78181C0F230340083BE4
:100170009B0806339B00D3185B68FA1D1278101C8D
:1001800003220240D200101CFF228240D2431A40B8
:100190003B689B01FF200340F81D0078051C0320ED
:1001A0002840C00083401A438B1D9B00E3185A600F
:1001B00026E0164CFB1D1B785BB29B081349FA1D09
:1001C000127852B29208C03292005258F91D097842
:1001D000081C03210140C900081CFF218140C943BC
:1001E00011403A689201FF200240F81D0078051C7A
:1001F00003202840C00082400A43C0339B001A51AC
:10020000BD4602B0B0BDC04600ED00E000E100E038
:1002100080B582B000AF78607B680E4A934201D906
:10022000012312E00C4B7A681202120A013A5A605A
:1002300001235B42181C0321FFF780FF064B0022BD
:100240009A60054B07221A600023181CBD4602B0B5
:1002500080BDC046FFFFFF0010E000E080B500AFAA
:10026000034B1B685A1C024B1A60BD4680BDC0463A
:100270001400002080B500AF80239B02181C0121D0
:10028000FFF720FF80231B01181C0121FFF738FF17
:100290004B4BC0221A604A4B02221A71484B002273
:1002A0009A71474B0122DA71454B00225A71902313
:1002B000DA05434B101C191C00F070F99023DB0584
:1002C000181C0621022200F0FBF99023DB05181C04
:1002D0000721022200F0F4F93A4B00221A81394B2F
:1002E00000225A80384B1B68181C384900F0EEFB7E
:1002F000031C1A1C334B5A60324B00221A80314BBC
:1003000000229A72324A2F4B101C191C00F028FA56
:10031000304B00225A822F4B0822DA812D4B70225B
:100320001A802C4B04229A80274B1A68131C9B00BE
:100330009B181A01D31A181C274900F0C7FB031C8D
:100340001A1C244B9A60224A224B101C191C00F0E4
:10035000EBFA224B8022D2019A81204B802252015B
:100360001A811E4B802292015A811C4B0022DA8096
:100370001A4B00229A80194B8022D2005A80174BC8
:10038000802212011A80124A144B101C191C00F012
:100390007FFA0F4B181C012100F05AFA0C4B181C65
:1003A000012100F09BFA084B1B68181CFA239900E6
:1003B00000F08CFB031C181CFFF72AFFFEE7C04669
:1003C0003C0000204400002000000020F049020012
:1003D000002C014028000020C0E1E40018000020AB
:1003E0000C488546002103E00B4B5B584350043119
:1003F0000A480B4B42189A42F6D30A4A02E00023FD
:1004000013600432084B9A42F9D300F011F8FFF759
:1004100031FFFEE700200020F00B00080000002064
:10042000140000201400002050000020FEE700000F
:1004300080B500AF1B4B1B4A126801210A431A60AA
:10044000184B184A526818490A405A60154B154A09
:10045000126816490A401A60124B124A126814496F
:100460000A401A600F4B0F4A526812490A405A60FC
:100470000C4B0C4AD26A0F218A43DA62094B094AB3
:10048000126B0D490A401A63064B064A526B012152
:100490008A435A63034B00229A6000F00FF8BD466E
:1004A00080BDC046001002400CB8FFF8FFFFF6FE0A
:1004B000FFFFFBFFFFFFC0FFACFEFFFF80B582B078
:1004C00000AF00237B6000233B60314B304A126851
:1004D000802149020A431A602D4B1A6880239B022F
:1004E00013403B607B6801337B603B68002B04D189
:1004F0007A68A023DB019A42EED1254B1A6880234B
:100500009B02134002D001233B6001E000233B60CB
:100510003B68012B38D11F4B11221A601C4B1C4A1F
:1005200052685A601A4B1A4A52685A60184B184A55
:10053000526819490A405A60154B154A5268882179
:1005400049030A435A60124B114A12688021490438
:100550000A431A60C0460E4B1A6880239B0413405E
:10056000F9D00B4B0A4A526803218A435A60084B60
:10057000074A526802210A435A60C046044B5B682E
:100580000C221340082BF9D1BD4602B080BDC046F5
:100590000010024000200240FFFFC0FF80B586B07F
:1005A00000AF7860396000237B6100233B6100234A
:1005B000FB6000237B617CE07B6901229A40131C75
:1005C0003B613B681B683A691340FB60FA683B6912
:1005D0009A426BD13B681B79012B03D03B681B7996
:1005E000022B34D17B689B687A695200111C03226C
:1005F0008A40D2431A407B689A607B689A683B685D
:100600005B79191C7B695B0099400B1C1A437B6862
:100610009A607B689B889BB27A6992B2111C012216
:100620008A4092B2D24392B213409AB27B689A80C7
:100630007B689B889AB23B689B79191C7B699BB24B
:1006400099400B1C9BB213439AB27B689A807B68DB
:100650001B687A695200111C03228A40D2431A4057
:100660007B681A607B681A683B681B79191C7B6978
:100670005B0099400B1C1A437B681A607B68DB683F
:100680007A6992B25200032191400A1CD2431A4067
:100690007B68DA607B68DA683B68DB79191C7B6908
:1006A0005B0099400B1C1A437B68DA607B6901335D
:1006B0007B617B690F2B00D87EE7BD4606B080BD0D
:1006C00080B584B000AF7860081C111CBB1C021CF4
:1006D0001A807B1C0A1C1A700023FB600023BB607D
:1006E0007B1C1B78BA1C128807210A409200934099
:1006F000FB60BB1C1B88DB089BB2181CBB1C1B8847
:10070000DB089BB21A1C7B6808329200D358BA1CD3
:10071000128807210A409200111C0F228A40D243FE
:100720001A40111C7B68021C08329200D150BB1C7D
:100730001B88DB089BB21A1C7B6808329200D258D7
:10074000FB681343BB60BB1C1B88DB089BB21A1CF5
:100750007B6808329200B968D150BD4604B080BDB4
:1007600080B584B000AF786039600E23FB1800229A
:100770001A800E23FB187A6812881A807B682D4A2B
:10078000934208D07A688023DB059A4203D07B68C5
:10079000294A934210D10E23FB180E22BA18128850
:1007A00070218A431A803B6859880E23FB180E2259
:1007B000BA1812880A431A807B68204A934210D0E4
:1007C0000E23FB180E22BA1812881D490A401A80FF
:1007D0003B6819890E23FB180E22BA1812880A43A7
:1007E0001A807B680E22BA1812881A803B685A68F1
:1007F0007B68DA623B681A887B681A857B680D4AD9
:1008000093420BD07B680F4A934207D07B680E4A15
:10081000934203D07B680D4A934204D13B689B7A94
:100820009AB27B681A867B6801229A82BD4604B020
:1008300080BDC046002C0140000400400010004074
:10084000FFFCFFFF00400140004401400048014020
:1008500080B582B000AF78600A1CFB1C1A70FB1CCC
:100860001B78002B08D07B681B889BB201221343A6
:100870009AB27B681A8007E07B681B889BB20122D2
:1008800093439AB27B681A80BD4602B080BDC046D1
:1008900080B582B000AF786039603B681A883B68E9
:1008A0005B8813439AB23B689B8813439AB23B68B8
:1008B000DB8813439AB23B681B8913439AB23B68A7
:1008C0005B8913439AB23B689B89134399B27B6857
:1008D00044229952BD4602B080BDC04680B582B068
:1008E00000AF78600A1CFB1C1A70FB1C1B78002BE5
:1008F0000AD07B6844229B5A9BB20A4A134399B29E
:100900007B684422995209E07B6844229B5A9BB23F
:100910005B045B0C99B27B6844229952BD4602B0DD
:1009200080BDC0460080FFFF80B584B000AF786016
:1009300039600A23FB1800221A800E23FB180022BC
:100940001A800C23FB1800221A807B681B8C9BB238
:10095000012293439AB27B681A840E23FB187A68AB
:10096000128C1A800C23FB187A6892881A800A234A
:10097000FB187A68128B1A800A23FB180A22BA180D
:10098000128870218A431A800A23FB180A22BA1897
:10099000128803218A431A803B6819880A23FB18AE
:1009A0000A22BA1812880A431A800E23FB180E2254
:1009B000BA18128802218A431A803B6899890E234B
:1009C000FB180E22BA1812880A431A803B6859880D
:1009D0000E23FB180E22BA1812880A431A807B686D
:1009E000344A93420BD07B68334A934207D07B68EA
:1009F000324A934203D07B68314A934243D10E235B
:100A0000FB180E22BA18128808218A431A803B6804
:100A1000D9890E23FB180E22BA1812880A431A80AD
:100A20000E23FB180E22BA18128804218A431A805A
:100A30003B6899880E23FB180E22BA1812880A43C5
:100A40001A800C23FB180C22BA1812881D490A4080
:100A50001A800C23FB180C22BA1812881A490A4073
:100A60001A803B68198A0C23FB180C22BA181288CA
:100A70000A431A803B68598A0C23FB180C22BA18C7
:100A800012880A431A807B680C22BA1812889A804E
:100A90007B680A22BA1812881A833B689A687B68B6
:100AA0005A637B680E22BA1812881A84BD4604B0B5
:100AB00080BDC046002C0140004001400044014080
:100AC00000480140FFFEFFFFFFFDFFFF002243083B
:100AD0008B4274D303098B425FD3030A8B4244D306
:100AE000030B8B4228D3030C8B420DD3FF22090248
:100AF00012BA030C8B4202D31212090265D0030B07
:100B00008B4219D300E0090AC30B8B4201D3CB03FC
:100B1000C01A5241830B8B4201D38B03C01A52413E
:100B2000430B8B4201D34B03C01A5241030B8B4240
:100B300001D30B03C01A5241C30A8B4201D3CB022B
:100B4000C01A5241830A8B4201D38B02C01A524110
:100B5000430A8B4201D34B02C01A5241030A8B4213
:100B600001D30B02C01A5241CDD2C3098B4201D32B
:100B7000CB01C01A524183098B4201D38B01C01AA9
:100B8000524143098B4201D34B01C01A5241030920
:100B90008B4201D30B01C01A5241C3088B4201D3CF
:100BA000CB00C01A524183088B4201D38B00C01A7C
:100BB000524143088B4201D34B00C01A5241411AA3
:100BC00000D20146524110467047FFE701B50020B0
:100BD00000F00CF802BDC0460029F7D003B5FFF7BE
:100BE00075FF0EBC4243891A1847C0467047C0467D
:100BF000006CDC02000000000000000001020304A1
:040C000006070809D2
:0400000508000000EF
:00000001FF
